:100E7E000A128A11422F03138316061486140615BE
:100E8E00861506160710871007118711071287128D
:100E9E00071383120608A00020081039A100A10C28
:100EAE00A10CA10CA10C21080139A10020080839C0
:100EBE00A200A20CA20CA20C22080139A20020084A
:100ECE000439A300A30CA30C23080139A3002008A6
:100EDE000239A400A40C24080139A4002008013909
:100EEE00A50025080139A50020081039A600A60C7A
:100EFE00A60CA60CA60CA60926080139A6002008E9
:100F0E000839A700A70CA70CA70CA70927080139B9
:100F1E00A70020080439A800A80CA80CA8092808C6
:100F2E000139A80020080239A900A90CA90929082D
:100F3E000139A90020080139AA00AA092A08013995
:100F4E00AA002308240425042705AB002B18B02F74
:100F5E00B22F0714B42F0710B42F21082704290528
:100F6E0028052A05AC002C18BD2FBF2F8714C12FC2
:100F7E008710C12F2108220423042905AD002D1846
:100F8E00C92FCB2F0715CD2F0711CD2F29082504DB
:100F9E00270526052805AE002E18D62FD82F871523
:100FAE00DA2F8711DA2F22082405AF00260827052D
:100FBE00280529052A05AF042F18E62FE82F071656
:100FCE00EA2F0712EA2F210822042905B000301853
:100FDE00F12FF32F8716F52F8712F52F24082504EE
:100FEE002705B1003118FC2FFE2F0717512F0713BD
:020FFE00512F71
:02400E00B13FC0
:00000001FF
